:100000000C948F340C94C0340C94C0340C94C034D1
:100010000C94C0340C9483D40C94C0340C94C0342D
:100020000C9411D40C94C0340C9419C00C94C034AA
:100030000C94966D0C94C0340D949C100C9478AC78
:100040000C94C0340D9455160C94C0340C94C034E8
:100050000C94C0340C94C0340C94C0340C944CBF39
:100060000C94C0340C94DC730C94C0340C94C034E5
:100070000C94C0340C94C0340C94C0340C94C03430
:100080000C94C0340C94C0340C94C0340C94C03420
:100090000C9498730C94C0340C94C0340C94C034F9
:1000A0000C94C0340C94C0340C94307A0C94C0344A
:1000B0000C94C0340C94127A0C94C0340C94C03458
:1000C0000C94C0340C94C0340C94C0340C946E79ED
:1000D0000C94C0340C94C0340C94C0340C94C034D0
:1000E0000C94C034084AD73B3BCE016E84BCBFFDA4
:1000F000C12F3D6C74319ABD56833DDA3D00C77FF8
:1001000011BED9E4BB4C3E916BAAAABE0000008090
:100110003F05A84CCDB2D44EB93836A9020C50B91F
:10012000918688083CA6AAAA2ABE000000803F0744
:10013000634236B79BD8A71A39685618AEBAAB5582
:100140008C1D3CB7CC5763BD6DEDFD753EF6177247
:1001500031BF000000803F08000000BE9224491219
:100160003EABAAAA2ABECDCCCC4C3E00000080BE3D
:10017000ABAAAAAA3E00000000BF000000803F001A
:1001800000000000084178D3BB4387D1133D190E0E
:100190003CC3BD4282AD2B3E68EC8276BED98FE176
:1001A000A93E4C80EFFFBE01C4FF7F3F000000006E
:1001B00000000C94BE450C94175B0C9427450C94DE
:1001C000F06A0C9435540C94BDBF0C94FE350C941D
:1001D00078EC0C94923C0D942B240C94376A0D947B
:1001E0004C240C947E3C0C94CF560C9486360C9484
:1001F00034740C9439580C94F7380C94DF4D0C94EB
:10020000B7FD0D9454240C94F2340C94883C0C9457
:10021000F2BF0C9470470C9410370C949B3C0C94D8
:100220006BBF0D9430240C94F5340C9499620C94AB
:10023000E0EF0C9496440D94D8840C9485BF0C94F4
:10024000704D0C9483560C941C3B0D940D300D9402
:1002500061010C94FB340C94503F0C94A34A0D9410
:1002600014310D9430360C94826A0D94AA020D94C8
:1002700077840C942D3F0C9435480C94A1C40C94B5
:10028000844D0D946D010C94DB380D9497050D94FD
:1002900074240C9401ED0D94C3840C9413350C94C8
:1002A00045ED0C941B350C94E6340C94F4690C94D5
:1002B00008360D9481090C94A6360D9452000C94C6
:1002C000A3690C94355E0C94FFF40C9433350D94B3
:1002D000CC300D94C5360C9436FF0C94B4520D946A
:1002E00084240C94BD3C0C9449F50C948FBE0C9462
:1002F00090480C94A84D0C94FC510C94C14D0C9456
:100300007BEE0C9492370C94EB3E0C947F460C944D
:10031000E2380C947A360D9465840D94B6300D94C1
:100320005C240C94D8470D94E4360D947C240C94F2
:100330006A6A0D949C240D9444240C9430360C94D9
:10034000664D0C94C5350D94AB300C9419450C9446
:10035000D54D0C949EBF0D94DB840D9464240C94B5
:1003600026680C949FFC0C9425350C9468BE0D9463
:10037000E1050C94E2360D94DC350C94B0FC0C9441
:1003800056490C945D450D944DAF0C94966A0C94AF
:100390008F640C94B1390D94A0300D94B9010C9474
:1003A000793C0C94E0BF0C94C4690C94AB350C946C
:1003B000A73A0C940EFE0C94D9B80D94FC300C9412
:1003C00009350C94BD560C949E4D0C949B360C94A0
:1003D000B7FE0C94423B0C94FF340C94A03E0D9459
:1003E0008C240D9462300C94E0690C94006A0C9497
:1003F00099560D94C0840C944CFE0C9438350C9492
:10040000AAEC0C943A380C94833C0C94B4BF0D9431
:100410003A240C94EE340D94CF840C945F490C94E0
:1004200020350C94F0380C94756B0D94BB230C9410
:10043000CB6A0C940D350C944D4B0D9482030C94A7
:10044000C73C0D94F12F0C945D6B0C9421350D94E9
:1004500000240D94FD230C9490BF0D949A020C94EB
:100460009A6A0D949E490D944F010C9468470C9420
:100470009B620C94C25C0D947A2E0D9443AB0C9449
:100480007A4D0C94B76A0C94CB4D0C94DD350C94DA
:10049000D6F50D9492360D94E1350C94594D0D948A
:1004A00035240D945C840C94743C0D9405240C94B8
:1004B000614D0C9444EC0D94D8020D942D030D94D1
:1004C00094240C94C3EF0C94EA340C944E360C94A0
:1004D000D93B0C9422370C9405350C9429350C9497
:1004E00004BB0C948D3C0C94E9380C9430560C945D
:1004F000944D0C94A93C0C9418F00C9463EC0C945F
:100500003C680C9444360C94FCC20C94B24D0D948F
:1005100095020D94C1300C94783A0C94B33C0C9431
:10052000E94D0D94C6840D9406030C94A4460C94D6
:1005300017350C948C4D0C94F95D0D9472300C941D
:1005400068490D945E000C941C360C94973C0D94F5
:10055000BD840D94F0010C94F34D0D94B4840C946F
:10056000906A0C94DC6A0C94A4470D943B300D9473
:100570006C240D94A2090C94E0340C9409ED0C94B5
:10058000EB480C9453EF0D94DE096E616E00696EBA
:1005900066004E414E494E495459494E46CDCCCC49
:1005A0003D0AD7233C17B7D13877CC2B329595E647
:1005B000241FB14F0A000020410000C84200401C27
:1005C0004620BCBE4CCA1B0E5AAEC59D7400407A74
:1005D00010F35A00A0724E18090010A5D4E80000CC
:1005E000E87648170000E40B54020000CA9A3B006A
:1005F0000000E1F505000080969800000040420FE1
:10060000000000A08601000000102700000000E8A4
:1006100003000000006400000000000A0000000069
:10062000000100000000002C76D888DC674F08230A
:10063000DFC1DFAE59E1B1B796E5E3E453C63AE670
:1006400051997696E8E6C28426EB898C9B62ED4050
:100650007C6FFCEFBC9C9F40F2BAA56FA5F490059F
:100660005A2AF75C936B6CF9676DC11BFCE0E40DD3
:1006700047FEF520E6B500D0ED902E0300943577C7
:10068000050080841E080000204E0A000000C80CEF
:10069000333333330F986E12831141EF8D21148958
:1006A0003BE65516CFFEE6DB18D1844B381BF77CB2
:1006B0001D901DA4BBE424203284725E228100C9F7
:1006C000F124ECA1E53D276364696E6F7073757862
:1006D000585B00583A00593A005A3A002563252DD4
:1006E00031332E313353252B352E33660054656D4F
:1006F00070657261747572652063616C69627261A4
:1007000074696F6E206661696C65642E20436F6E3C
:1007100074696E756520776974682070726573738B
:10072000696E6720746865206B6E6F622E00546579
:100730006D70657261747572652063616C69627257
:100740006174696F6E20646F6E652E20436F6E74E6
:10075000696E756520776974682070726573736956
:100760006E6720746865206B6E6F622E007B5B4540
:1007700052523A00332E31302E30005D5B465752D4
:100780003A005D5B54494D3A005D5B464E4D3A0080
:100790005D5B46454D3A005D5B5043443A005B5417
:1007A00046553A007B5B50524E3A39395D007B5BCF
:1007B00050524E3A355D007B5B50524E3A305D00F0
:1007C0007B5B50524E3A395D007B5B50524E3A385B
:1007D0005D007B5B5245533A305D5B46494C3A00C5
:1007E0007B5B5245533A315D5B46494C3A005B5066
:1007F000524E3A005B50464E3A305D005B444941F0
:100800003A005D5B4154423A005D5B4154303A002E
:100810005D5B5354423A005B5354303A00473830E2
:10082000004D3435004D3435205A004737360057D7
:10083000697A6172642073746174653A2025640A70
:10084000004578706572696D656E74616C0044690D
:100850007361626C65206661726D206D6F64650006
:100860004D3834004D343400473238205700200AC8
:10087000200A20004739390044697361626C6520A1
:100880006661726D206D6F64653F004D36303000DB
:100890004D203834004D3834004D3234004D323361
:1008A00020257300052E2E00257500593A20257548
:1008B000202D3E202E2E2E00257500583A2025751D
:1008C000202D3E202E2E2E00457874722066616EFB
:1008D0002073706565643A2025640A005072696E61
:1008E000742066616E2073706565643A2025640A21
:1008F000005465737420323A004578747220666142
:100900006E2073706565643A2025640A0050726930
:100910006E742066616E2073706565643A2025648C
:100920000A005465737420313A004D383400256351
:100930002041584953205347313D25640A00486FF0
:1009400074656E6400426564005A00590058002DB9
:100950002D2D2D2D2D2D2D2D2D2D2D2D2D2D2D2DC7
:100960002D2D2D004F4B000000000000110A0462E5
:1009700065746100616C70686100646576000300F5
:100980000A0000008111505255534133444657002C
:1009900000002100240027002A002D003000330031
:1009A00001010000040107010A01000022002500E6
:1009B00028002B002E003100340002010000050148
:1009C00008010B01000020002300260029002C0054
:1009D0002F00320000010000030106010901050596
:1009E0000505070508080808020202020A0A0808A5
:1009F00004040404010101010101010103030303D3
:100A000003030303040707070C0C0C0C0C0C0C0C61
:100A10000202020206060606060606060B0B0B0B72
:100A20000B0B0B0B07070A0A0A0A0A0A050505043D
:100A3000040408080102102020080810204010209B
:100A40004080020102010804020101020408102092
:100A50004080804020100804020180040201804090
:100A600020100804020108040201010204081020F9
:100A70004080010204081020408010080408801003
:100A80002040044080102040048000000A0B02092E
:100A90000C0D0E0807030401000000000000000018
:100AA0000000000000000000000000000000000046
:100AB0000000000000001211100000000000000003
:100AC0000000000000000000000000000000000026
:100AD0000000000000000000000000000000000016
:100AE000435A5058003B53006164635F696E6974F8
:100AF000000A204F726967696E616C2050727573CD
:100B0000612069330A20202050727573612052657C
:100B100073656172636800200A200A200A20004180
:100B20006C6C204461746100536572766963652062
:100B300070726570005368697070696E67207072BA
:100B400065700053746174697374696373004C61F8
:100B50006E67756167650045524153494E47206194
:100B60006C6C206461746100466163746F727920FB
:100B7000524553455400494E5434004D4B334D4D6E
:100B80005532004C4F4D4B33002C015365702020E3
:100B900035203230323100436F6D70696C65643AD4
:100BA0002000286E6F6E652C2064656661756C741C
:100BB00020636F6E666967290053657020203520B9
:100BC000323032312031303A30343A32360020334C
:100BD0002E31302E302D34343831007374617274FC
:100BE00000534E20757064617465206661696C65A0
:100BF0006400534E207570646174656400435A50FC
:100C00005800416E206572726F72207768696C655A
:100C10002077726974696E6720746F20746865202C
:100C2000534420436172642E002055706C6F6164E0
:100C300020696E2070726F677265737300205A3A74
:100C40000020593A0020583A0043524153485F442B
:100C50004554454354454458590043524153485F15
:100C60004445544543544544590043524153485F19
:100C7000444554454354454458004D32390041647D
:100C80006A757374696E67205A3A00526561722002
:100C900073696465205B756D5D0046726F6E7420CC
:100CA000736964655B756D5D005269676874207374
:100CB0006964655B756D5D004C656674207369647D
:100CC00065205B756D5D005365742074656D70659E
:100CD0007261747572653A0054656D706572617405
:100CE0007572652063616C6962726174696F6E20F0
:100CF0006661696C65640054656D706572617475D8
:100D000072652063616C6962726174696F6E2069DB
:100D1000732066696E697368656420616E64206122
:100D200063746976652E2054656D702E2063616C46
:100D30006962726174696F6E2063616E2062652002
:100D400064697361626C656420696E206D656E759F
:100D50002053657474696E67732D3E54656D702EF3
:100D60002063616C2E0046696C2E2073656E736F74
:100D700072004578747275646572004D6F766520F7
:100D80005A004D6F76652059004D6F7665205800EA
:100D9000437261736820646574656374696F6E2063
:100DA00063616E0A6265207475726E6564206F6E91
:100DB000206F6E6C7920696E0A4E6F726D616C20C7
:100DC0006D6F6465005741524E494E473A0A43726F
:100DD00061736820646574656374696F6E0A646921
:100DE0007361626C656420696E0A537465616C742A
:100DF00068206D6F6465004175746F6C6F61646924
:100E00006E672066696C616D656E742061766169DC
:100E10006C61626C65206F6E6C79207768656E20FE
:100E200066696C616D656E742073656E736F722098
:100E30006973207475726E6564206F6E2E2E2E009D
:100E40004552524F523A2046696C616D656E74206E
:100E500073656E736F72206973206E6F7420726594
:100E600073706F6E64696E672C20706C656173655A
:100E700020636865636B20636F6E6E656374696F72
:100E80006E2E004D6F6465206368616E6765206932
:100E90006E2070726F67726573732E2E2E00436121
:100EA0006C69627261746500536865657420252EF3
:100EB00037730A5A206F66667365743A20252B31A2
:100EC0002E3366206D6D0A2563436F6E74696E75EF
:100ED000650A256353746172742066726F6D207A9F
:100EE00065726F00506C65617365206C6F61642082
:100EF00066696C616D656E742066697273742E002C
:100F00003E43616E63656C0046696C616D656E742D
:100F10000053656C6563742066696C616D656E7401
:100F20003A0052756E6E696E672057697A61726415
:100F30002077696C6C2064656C65746520637572DC
:100F400072656E742063616C6962726174696F6E40
:100F500020726573756C747320616E6420737461A4
:100F600072742066726F6D207468652062656769AF
:100F70006E6E696E672E20436F6E74696E75653F85
:100F80000050726568656174696E67206E6F7A7A69
:100F90006C652E20506C6561736520776169742ED5
:100FA000004C6F6164696E672066696C616D656E87
:100FB0007400506C6561736520696E73657274208E
:100FC00066696C616D656E7420696E746F207468FB
:100FD000652065787472756465722C207468656E1E
:100FE00020707265737320746865206B6E6F622069
:100FF000746F206C6F61642069742E00506C6561A1
:10100000736520696E736572742066696C616D65C5
:101010006E7420696E746F207468652066697273DF
:10102000742074756265206F6620746865204D4D6C
:10103000552C207468656E20707265737320746817
:1010400065206B6E6F6220746F206C6F6164206925
:10105000742E00546865207072696E746572207712
:10106000696C6C207374617274207072696E74693B
:101070006E672061207A69672D7A6167206C696EDE
:10108000652E20526F7461746520746865206B6EE4
:101090006F6220756E74696C20796F75207265615E
:1010A000636820746865206F7074696D616C206876
:1010B00065696768742E20436865636B2074686592
:1010C00020706963747572657320696E2074686539
:1010D0002068616E64626F6F6B202843616C696287
:1010E000726174696F6E2063686170746572292E15
:1010F0000053656C6563742074656D70657261740E
:10110000757265207768696368206D6174636865CE
:101110007320796F7572206D6174657269616C2ED0
:101120000043686F6F736520612066696C616D654F
:101130006E7420666F7220746865204669727374DD
:10114000204C617965722043616C696272617469D7
:101150006F6E20616E642073656C656374206974C2
:1011600020696E20746865206F6E2D7363726565EB
:101170006E206D656E752E004E6F77204920776961
:101180006C6C2063616C6962726174652064697360
:1011900074616E6365206265747765656E2074693D
:1011A00070206F6620746865206E6F7A7A6C652097
:1011B000616E64206865617462656420737572662F
:1011C0006163652E00596F752063616E20616C77D5
:1011D00061797320726573756D6520746865205739
:1011E000697A6172642066726F6D2043616C696216
:1011F000726174696F6E202D3E2057697A61726446
:101200002E00506C6561736520636865636B206FA9
:1012100075722068616E64626F6F6B20616E64200E
:10122000666978207468652070726F626C656D2ED7
:10123000205468656E20726573756D6520746865ED
:101240002057697A617264206279207265626F6FDB
:1012500074696E6720746865207072696E74657257
:101260002E00416C6C20697320646F6E652E2048DF
:1012700061707079207072696E74696E67210049BF
:101280006620796F75206861766520616464697491
:10129000696F6E616C20737465656C207368656539
:1012A00074732C2063616C69627261746520746868
:1012B000656972207072657365747320696E20535E
:1012C000657474696E6773202D20485720536574C8
:1012D0007570202D20537465656C20736865657486
:1012E000732E00506C6561736520636C65616E20C0
:1012F0006865617462656420616E64207468656EFF
:1013000020707265737320746865206B6E6F622E37
:1013100000446F20796F752077616E7420746F20A0
:10132000726570656174206C61737420737465708C
:1013300020746F20726561646A75737420646973C8
:1013400074616E6365206265747765656E206E6F8B
:101350007A7A6C6520616E64206865617462656488
:101360003F0053656C656374206E6F7A7A6C6520FC
:10137000707265686561742074656D706572617402
:10138000757265207768696368206D61746368654C
:101390007320796F7572206D6174657269616C2E4E
:1013A0000049732066696C616D656E74206C6F61B5
:1013B0006465643F004E6F7720492077696C6C202C
:1013C00070726568656174206E6F7A7A6C652066EC
:1013D0006F7220504C412E00492077696C6C20724E
:1013E000756E207A2063616C6962726174696F6ED8
:1013F000206E6F772E004E6F772072656D6F766569
:10140000207468652074657374207072696E74202E
:1014100066726F6D20737465656C207368656574A2
:101420002E00506C656173652072656D6F76652066
:101430007368697070696E672068656C7065727337
:101440002066697273742E00492077696C6C207273
:10145000756E2078797A2063616C69627261746953
:101460006F6E206E6F772E2049742077696C6C2028
:1014700074616B6520617070726F782E203132203C
:101480006D696E732E0046697273742C2049207743
:10149000696C6C2072756E207468652073656C666B
:1014A0007465737420746F20636865636B206D6F5F
:1014B000737420636F6D6D6F6E20617373656D6201
:1014C0006C792070726F626C656D732E0048692CA8
:1014D000204920616D20796F7572204F72696769AC
:1014E0006E616C205072757361206933207072696F
:1014F0006E7465722E20576F756C6420796F75203D
:101500006C696B65206D6520746F20677569646513
:1015100020796F75207468726F75676820746865CC
:101520002073657475702070726F636573733F000C
:1015300048692C204920616D20796F7572204F72A7
:101540006967696E616C2050727573612069332020
:101550007072696E7465722E20492077696C6C20F8
:10156000677569646520796F75207468726F756737
:101570006820612073686F727420736574757020C1
:1015800070726F636573732C20696E20776869636E
:101590006820746865205A2D617869732077696CBA
:1015A0006C2062652063616C696272617465642E8F
:1015B000205468656E2C20796F752077696C6C20DB
:1015C000626520726561647920746F207072696E43
:1015D000742E00452D636F72726563743A005A2D44
:1015E000636F72726563743A00592D636F7272652E
:1015F00063743A00582D636F72726563743A0043E6
:101600007574746572004D6F64656C005374726913
:101610006374005761726E00436865636B73004EBC
:101620006F7A7A6C6520642E004E6F6E6500416C97
:101630007068616265740054696D6500536F7274FF
:1016400000534420636172640052506920706F72CD
:10165000740054656D702E2063616C2E004C696EB1
:101660002E20636F7272656374696F6E0048572035
:10167000536574757000462E206175746F6C6F61D0
:10168000640044697361626C652073746570706591
:101690007273004D6F766520617869730054656DD3
:1016A00070657261747572650054656D702E20638B
:1016B000616C6962726174696F6E00526573657402
:1016C0002058595A2063616C6962722E0050494457
:1016D0002063616C6962726174696F6E0042656457
:1016E000206C6576656C20636F7272656374004D63
:1016F00065736820426564204C6576656C696E6729
:101700000043616C696272617465205A0043616CC8
:101710006962726174652058595A0053656C667429
:101720006573740042656C74207465737400576946
:101730007A617264004C6F616420616C6C00506C63
:10174000656173652070756C6C206F7574206669B7
:101750006C616D656E7420696D6D65646961746539
:101760006C7900556E6C6F6164696E672066696C98
:10177000616D656E740052657365740052656E61CB
:101780006D65004669727374206C617965722063BF
:10179000616C2E0053656C65637400537465656CF1
:1017A0002073686565747300537570706F72740090
:1017B0004661696C207374617473204D4D55004609
:1017C00061696C207374617473005374617469731C
:1017D000746963730043616C6962726174696F6EEE
:1017E000004175746F4C6F61642066696C616D6552
:1017F0006E74004375742066696C616D656E74006B
:10180000456A6563742066696C616D656E74005528
:101810006E6C6F61642066696C616D656E74004CFE
:101820006F616420746F206E6F7A7A6C65004C6F04
:1018300061642066696C616D656E74004E6F205343
:10184000442063617264005072696E742066726F26
:101850006D20534400526573756D65207072696E1A
:1018600074005061757365207072696E74005475F0
:101870006E650050726568656174004C697665201C
:1018800061646A757374205A00496E666F207363D1
:101890007265656E0046696E697368696E67206D72
:1018A0006F76656D656E7473004272696768746EF9
:1018B000657373004173736973740053696C656E6B
:1018C00074004F6E6365004C6F756400536F756EE6
:1018D00064004D4D55204D6F64650043726173681F
:1018E000206465742E00537465616C7468004E6FDB
:1018F000726D616C0046616E7320636865636B0096
:1019000046696C2E2073656E736F72004368616E5A
:1019100067652066696C616D656E7400466C6F77F3
:10192000005370656564004E2F41004D61676E6520
:10193000747320636F6D702E005A2D70726F626524
:10194000206E722E004D6573680054696D656F7569
:10195000740044696D00427269676874004175746F
:101960006F004D6F6465004C6576656C2044696D51
:101970006D6564004C6576656C20427269676874B9
:101980000046616E20737065656400426564004EB8
:101990006F7A7A6C650053657474696E6773005072
:1019A00072696E742061626F727465640053746F43
:1019B00070207072696E7400436865636B696E674E
:1019C0002066696C650046696C6520696E636F6DA1
:1019D000706C6574652E20436F6E74696E7565203A
:1019E000616E797761793F0004526566726573684C
:1019F000004D61696E0057616974696E6720666F9A
:101A000072206E6F7A7A6C6520616E642062656404
:101A100020636F6F6C696E670053656C6620746538
:101A20007374204F4B0053656C662074657374208B
:101A30007374617274005072696E742066616E3ADC
:101A40000045787472756465722066616E3A004371
:101A5000616C6962726174696E6720686F6D6500A0
:101A6000416C6C20636F72726563740043686563D8
:101A70006B696E672073656E736F72730043686580
:101A8000636B696E6720686F74656E640043686598
:101A9000636B696E672062656400436865636B69A8
:101AA0006E67205A206178697300436865636B69CB
:101AB0006E672059206178697300436865636B69BC
:101AC0006E672058206178697300436865636B69AD
:101AD0006E6720656E6473746F7073004361726427
:101AE0002072656D6F766564004F6666004F6E000C
:101AF0004261636B005072696E746572206E6F7A1A
:101B00007A6C65206469616D6574657220646966CC
:101B1000666572732066726F6D2074686520472D4C
:101B2000636F64652E20506C656173652063686522
:101B3000636B207468652076616C756520696E2022
:101B400073657474696E67732E205072696E7420A9
:101B500063616E63656C6C65642E005072696E74AF
:101B60006572206E6F7A7A6C65206469616D657448
:101B7000657220646966666572732066726F6D2097
:101B800074686520472D636F64652E20436F6E7403
:101B9000696E75653F004D4B33206669726D7761E4
:101BA0007265206465746563746564206F6E204D92
:101BB0004B3353207072696E746572004649524D02
:101BC00057415245204352415348210A44656275AA
:101BD00067206461746120617661696C61626C6523
:101BE00020666F7220616E616C797369732E204379
:101BF0006F6E7461637420737570706F727420748B
:101C00006F207375626D69742064657461696C73AB
:101C10002E00426C61636B6F7574206F6363757225
:101C20007265642E205265636F76657220707269EA
:101C30006E743F0053656C66746573742077696CCD
:101C40006C2062652072756E20746F2063616C6910
:101C5000627261746520616363757261746520737B
:101C6000656E736F726C657373207265686F6D69F2
:101C70006E672E00546865726520697320737469FD
:101C80006C6C2061206E65656420746F206D616BE3
:101C900065205A2063616C6962726174696F6E2E8F
:101CA00020506C6561736520666F6C6C6F77207473
:101CB0006865206D616E75616C2C2063686170745D
:101CC00065722046697273742073746570732C207A
:101CD00073656374696F6E2043616C6962726174CD
:101CE000696F6E20666C6F772E005072696E746536
:101CF0007220686173206E6F74206265656E206368
:101D0000616C69627261746564207965742E20501B
:101D10006C6561736520666F6C6C6F7720746865A5
:101D2000206D616E75616C2C2063686170746572E2
:101D30002046697273742073746570732C20736508
:101D40006374696F6E2043616C6962726174696F5C
:101D50006E20666C6F772E004F6C64207365747410
:101D6000696E677320666F756E642E2044656661C8
:101D7000756C74205049442C204573746570732031
:101D80006574632E2077696C6C20626520736574BE
:101D90002E005761726E696E673A20626F74682018
:101DA0007072696E746572207479706520616E64FA
:101DB000206D6F74686572626F61726420747970EF
:101DC00065206368616E6765642E005761726E6995
:101DD0006E673A207072696E7465722074797065EE
:101DE000206368616E6765642E005761726E696E6C
:101DF000673A206D6F74686572626F6172642074F7
:101E0000797065206368616E6765642E00202030FC
:101E1000002020310058643A2020253364202059C6
:101E2000643A20202533640A496E743A20253364CD
:101E30002020536875743A20202533640046494EAB
:101E400044410050494E44410057697A6172642010
:101E5000656E642073746174653A2025640A0053CA
:101E6000706F6F6C4A6F696E004669726D77617250
:101E70006500466C617368416972004572723A2070
:101E80005052494E542046414E204552524F520026
:101E90004572723A20455854522E2046414E2045F4
:101EA00052524F52002F2F20616374696F6E3A7047
:101EB0006175736564002F2F20616374696F6E3ADA
:101EC000726573756D6564002F2F20616374696F8F
:101ED0006E3A726573756D65002F2F2061637469AA
:101EE0006F6E3A63616E63656C0041786973206C54
:101EF000656E67746820646966666572656E6365A1
:101F00003A252E33660A004D65617375726564204B
:101F100061786973206C656E6774683A252E336644
:101F20000A004C43442073746174757320636861C4
:101F30006E67656400534420636172642072656C4F
:101F4000656173656400452D636F6F6C206D6F6410
:101F5000650045787465726E616C20535049206647
:101F60006C6173680A58464C415348206973206E6F
:101F70006F74207265732D0A706F6E64696E672EC0
:101F8000204C616E67756167650A73776974636871
:101F900020756E617661696C61626C652E002F2F11
:101FA00020616374696F6E3A64756D705F6176610C
:101FB000696C61626C6500507275736120693320D1
:101FC0004D4B3320426561724D657261204F4B2E3F
:101FD00000437261736844657465637420454E41C3
:101FE000424C4544210043726173684465746563E3
:101FF000742044495341424C45440058464C415397
:1020000048206E6F7420726573706F6E64696E67BE
:102010002E002020506C616E6E657242756666659A
:102020007242797465733A20002046726565204DCE
:10203000656D6F72793A2000207C20417574686F5D
:10204000723A2000204C617374205570646174658D
:10205000643A200020536F66747761726520526580
:1020600073657400205761746368646F67205265FC
:10207000736574002042726F776E206F7574205202
:1020800065736574002045787465726E616C2052CA
:102090006573657400506F77657255700065727274
:1020A0006F722077726974696E6720746F20666939
:1020B0006C6500656E6473746F7073206869743A40
:1020C0002000446F6E6520736176696E67206669D3
:1020D0006C652E006F6B00504154393132355F52C0
:1020E00045535F593D256868750A005041543931A0
:1020F00032355F5245535F583D256868750A005573
:1021000053415254322072782046756C6C21212143
:102110000053657474696E67732053746F726564DD
:102120000053746F7265642073657474696E6773AD
:1021300020726574726965766564004861726463D3
:102140006F6465642044656661756C7420536574C2
:1021500074696E6773204C6F616465640056320069
:10216000000000C8420000C8420000C84300A0446C
:10217000440000484300004843000040410000F094
:1021800042E8030000E8030000C8000000881300D4
:102190000000409C4400409C4400000000000000FF
:1021A00000204E00000000204100002041CDCCCC9A
:1021B0003E00009040000000000000000000000011
:1021C00000CDCCCC3E3D0A8141FF08433EB099ABE7
:1021D000438F42FC42E65A343F4C62B04500000057
:1021E00000004040000034420000000000000000F9
:1021F00000000041000000E03F0000C8420000C8AD
:1022000042000040410000F042C0030000C0030053
:1022100000C8000000881300001010102000409C2F
:1022200044454550524F4D204572726F72006275A1
:1022300073793A2070617573656420666F722069E6
:102240006E70757400627573793A2070617573658C
:102250006420666F72207573657200627573793AD7
:102260002070726F63657373696E6700000070435E
:1022700000004D430000524300000000000080C0F9
:102280009A99193E00000000000080C09A99193EFA
:102290000000A0400000A040000000402533642062
:1022A000737465703D253264206D73636E743D25D3
:1022B00034640A0000007043000051439AD951432E
:1022C000FFFFFF20413A0020503A002042403A00F0
:1022D00020403A00202F00205400202F0020423AB6
:1022E00000202F00543A00206D6963726F6E7300F6
:1022F00045786365737369766520626564206C65F3
:1023000076656C696E6720636F7272656374696F5E
:102310006E3A2000426564206C6576656C696E6774
:10232000206661696C65642E2053656E736F722040
:1023300074726967676572656420746F6F2068697D
:1023400067682E00426564206C6576656C696E670F
:10235000206661696C65642E2053656E736F722010
:10236000646973636F6E6E6563746564206F722059
:102370006361626C652062726F6B656E2E00204532
:102380003A00205A3A0020593A0020453A00205A93
:102390003A0020593A00583A0067636F64655F4D10
:1023A00037303120626567696E0A00416476616E7C
:1023B0006365204B3D004B206F7574206F66206174
:1023C0006C6C6F7765642072616E67652100200A0E
:1023D000200A20004D323230205325690025534613
:1023E000696C616D656E742073657474696E677372
:1023F0003A2044697361626C65640A00255346693A
:102400006C616D656E742073657474696E67733A80
:102410000A25532020204D3230302044252E3266AC
:102420000A002553526574726163743A20533D4C1F
:10243000656E67746820286D6D2920463A53706573
:10244000656420286D6D2F6D29205A3A205A4C69F9
:10245000667420286D6D290A25532020204D3230C6
:10246000372053252E32662046252E3266205A25E7
:102470002E32660A25535265636F7665723A205391
:102480003D4578747261206C656E67746820286DB4
:102490006D2920463A537065656420286D6D2F6D57
:1024A000290A25532020204D3230382053252E3242
:1024B000662046252E32660A25534175746F2D52CB
:1024C0006574726163743A20533D3020746F2064E8
:1024D000697361626C652C203120746F20696E74A1
:1024E00065727072657420657874727564652D6F9D
:1024F0006E6C79206D6F76657320617320726574E0
:102500007261637473206F72207265636F76657297
:102510006965730A25532020204D32303920532518
:10252000640A0025535049442068656174626564FB
:102530002073657474696E67733A0A2553202020EE
:102540004D3330342050252E32662049252E3266F8
:102550002044252E32660A002553504944207365D5
:102560007474696E67733A0A25532020204D333006
:10257000312050252E32662049252E3266204425F2
:102580002E32660A0025535374657073207065728D
:1025900020756E69743A0A255320204D393220582F
:1025A000252E32662059252E3266205A252E326677
:1025B0002045252E32660A255355537465702072C6
:1025C00065736F6C7574696F6E3A200A2553204DE0
:1025D0003335302058256420592564205A2564203D
:1025E0004525640A25534D6178696D756D206665D2
:1025F00065647261746573202D206E6F726D616CFD
:1026000020286D6D2F73293A0A255320204D323032
:10261000332058252E32662059252E3266205A2521
:102620002E32662045252E32660A25534D61786983
:102630006D756D20666565647261746573202D200B
:10264000737465616C746820286D6D2F73293A0A64
:10265000255320204D3230332058252E3266205904
:10266000252E3266205A252E32662045252E3266CA
:102670000A25534D6178696D756D20616363656CE2
:1026800065726174696F6E202D206E6F726D616C62
:1026900020286D6D2F7332293A0A255320204D32A0
:1026A00030312058256C752059256C75205A256CC1
:1026B000752045256C750A25534D6178696D756DDA
:1026C00020616363656C65726174696F6E202D2093
:1026D000737465616C746820286D6D2F7332293AAC
:1026E0000A255320204D3230312058256C75205951
:1026F000256C75205A256C752045256C750A255367
:10270000416363656C65726174696F6E3A20503D18
:102710007072696E742C20523D72657472616374BC
:102720002C20543D74726176656C0A255320204D2F
:102730003230342050252E32662052252E3266202B
:1027400054252E32660A2553416476616E636564B2
:10275000207661726961626C65733A20533D4D6900
:102760006E20666565647261746520286D6D2F73D7
:10277000292C20543D4D696E2074726176656C2061
:10278000666565647261746520286D6D2F73292CF0
:1027900020423D6D696E696D756D207365676D656D
:1027A0006E742074696D6520286D73292C20583D46
:1027B0006D6178696D756D205859206A65726B205E
:1027C000286D6D2F73292C20205A3D6D6178696D1D
:1027D000756D205A206A65726B20286D6D2F7329E4
:1027E0002C2020453D6D6178696D756D2045206A0E
:1027F00065726B20286D6D2F73290A255320204D9B
:102800003230352053252E32662054252E32662054
:1028100042252E32662058252E32662059252E322A
:1028200066205A252E32662045252E32660A25530B
:10283000486F6D65206F666673657420286D6D291D
:102840003A0A255320204D3230362058252E326644
:102850002059252E3266205A252E32660A0046253A
:10286000642025640A004D4D55203C3D2027462517
:1028700064202564270A004361703A25533A256392
:102880000A00455854454E4445445F4D323000419E
:1028900055544F5245504F52545F504F534954492D
:1028A0004F4E004155544F5245504F52545F464190
:1028B0004E53004155544F5245504F52545F54456A
:1028C0004D5000005A30005A310059300059310043
:1028D000583000583100456E642073746F70732057
:1028E000646961670044656C6574696F6E20666138
:1028F000696C65642C2046696C653A200046696CF9
:10290000652064656C657465643A004E6F7420538D
:1029100044207072696E74696E67005072696E74DB
:10292000207361766564005344207072696E742070
:10293000706175736564004F4B0042414400524121
:102940004D426F2046414E200043524153485F4361
:10295000414E43454C0043524153485F5245434F1B
:102960005645520043524153485F5245434F5645E6
:10297000520022283229004475706C6963617465C5
:1029800020542D636F64652069676E6F7265642ED5
:1029900000496E76616C6964205420636F64652E13
:1029A000002C204D39303720452069676E6F7265E5
:1029B00064006E6F2076616C696420636F6D6D6179
:1029C0006E64002C20002C20002C20006E2F610053
:1029D0002C20002C20002C20006E2F6100503A008B
:1029E0005761697420666F722050494E44412074CB
:1029F00061726765742074656D706572617475725B
:102A0000653A004155544F004C414E472053454CC8
:102A100020464F5243454400256925250A00256973
:102A200025250A002228312900303030303030305E
:102A3000302D303030302D303030302D303030309F
:102A40002D303030303030303030303030002055A4
:102A50005549443A00310020455854525544455296
:102A60005F434F554E543A0050727573612069337D
:102A7000204D4B3320426561724D65726100204DDF
:102A8000414348494E455F545950453A00312E3034
:102A900000206261736564206F6E204D61726C6905
:102AA0006E204649524D574152455F55524C3A6847
:102AB000747470733A2F2F6769746875622E636F30
:102AC0006D2F707275736133642F50727573612D41
:102AD0004669726D776172652050524F544F434F73
:102AE0004C5F56455253494F4E3A004649524D5756
:102AF0004152455F4E414D453A50727573612D46C6
:102B000069726D7761726520004D31313320530059
:102B100020423A0020453A00543A006F6B20006E84
:102B20002F61003F546F736869626120466C617366
:102B300068416972204765744950206661696C6517
:102B4000640A002569206D696E2C20256920736553
:102B50006300496E76616C6964204D20636F646523
:102B60003A2025730A004D65736820626564206C05
:102B70006576656C696E67206E6F74206163746939
:102B800076652E002020000A4D65617375726564BC
:102B900020706F696E74733A000A5A20736561720F
:102BA0006368206865696768743A20004E756D2017
:102BB000582C593A200050494E44412070726F629F
:102BC000652063616C6962726174696F6E207374F1
:102BD00061727400473238205730004E6F205049E0
:102BE0004E444120746865726D6973746F7200732E
:102BF0006574006E6F7A7A6C65004D424C004652E7
:102C00000042656174004C7A004C616E6700526549
:102C1000760046697200534E20696E76616C696475
:102C200000534E004D3238005245534554004D4D2F
:102C300055524553004D32340075766C6F00746800
:102C4000780046414E0046414E50494E5453540080
:102C500050524E0050696E67005052555341005318
:102C600045545F43484F505F005345545F535445AC
:102C7000505F005345545F574156455F00544D43E4
:102C80005F0043524153485F43414E43454C00432C
:102C9000524153485F5245434F56455200435241BB
:102CA00053485F44455445435445440043524153BF
:102CB000485F004D3120004D30004D313137002547
:102CC0006C75206279746573207772697474656EAF
:102CD00020746F20255320617420616464726573D1
:102CE000732030782530346C780A00442564202D18
:102CF00020526561642F57726974652025530A005C
:102D000020436F756E7420583A200045303A256490
:102D10002052504D2050524E313A25642052504D91
:102D2000204530403A25752050524E31403A2564B6
:102D30000A0064756D7020636C65617265640A00D9
:102D40006E6F2064756D7020617661696C61626C74
:102D5000650A00443231202D20726561642063725F
:102D60006173682064756D700A006E6F2064756D04
:102D70007020617661696C61626C650A0064756DD2
:102D80007020636F6D706C6574656420696E2025BA
:102D90006C756D730A0058464C41534800454550C8
:102DA000524F4D005352414D00442D31202D2045AE
:102DB0006E646C657373206C6F6F700A00534420EF
:102DC0007072696E74696E67206279746520004163
:102DD00063746976652045787472756465723A200B
:102DE00000496E76616C69642065787472756465FB
:102DF00072005A204F666673657400556E6B6E6F75
:102E0000776E20636F6D6D616E643A2022004D32E3
:102E1000303020496E76616C696420657874727513
:102E200064657220007A5F6D61783A20007A5F6D88
:102E3000696E3A2000795F6D61783A2000795F6DA4
:102E4000696E3A2000785F6D61783A2000545249EB
:102E5000474745524544006F70656E00785F6D6965
:102E60006E3A20005265706F7274696E6720656EED
:102E70006473746F70207374617475730053494C7C
:102E8000454E54004E4F524D414C002553204D4F5E
:102E900044453A2050657263656E7420646F6E65B8
:102EA0003A20256868643B207072696E74207469EA
:102EB0006D652072656D61696E696E6720696E204F
:102EC0006D696E733A2025643B204368616E6765C7
:102ED00020696E206D696E733A2025640A00456E84
:102EE000642066696C65206C69737400426567696B
:102EF0006E2066696C65206C69737400556E6B6E2C
:102F00006F776E20256320636F64653A2025730A0E
:102F1000000A50494E44412074656D7065726174B9
:102F20007572653A20252E3166205A2073686966CD
:102F30007420286D6D293A20252E3366000A5374BB
:102F400065703A2025642F360A000A537465703A7A
:102F50002025642F362028736B6970706564290AF8
:102F600050494E44412074656D706572617475728C
:102F7000653A202564205A20736869667420286D9C
:102F80006D293A300A000A5A45524F3A20252E330D
:102F9000660A0073746172742074656D7065726185
:102FA000747572653A20252E31660A00256420204A
:102FB000252E326600255320583A20252E356620CE
:102FC000593A20252E3566205A3A20252E35660A94
:102FD00000536C6565702E2E2E0045303A25642016
:102FE00052504D0A50524E303A25642052504D0AEC
:102FF00000256400526573656E640025533A2025F0
:103000006C640A25530A00536F6D652070726F62FD
:103010006C656D20656E636F756E74657265642C8A
:10302000205A2D6C6576656C696E6720656E666FDB
:1030300072636564202E2E2E00472D636F64652019
:10304000736C6963656420666F72206120646966D1
:10305000666572656E74206C6576656C2E20436FB4
:103060006E74696E75653F00472D636F64652073EC
:103070006C6963656420666F7220612064696666AE
:103080006572656E74206C6576656C2E20506C657B
:103090006173652072652D736C6963652074686562
:1030A000206D6F64656C20616761696E2E205072BF
:1030B000696E742063616E63656C6C65642E004795
:1030C0002D636F646520736C6963656420666F723D
:1030D0002061206E65776572206669726D77617216
:1030E000652E20506C656173652075706461746530
:1030F00020746865206669726D776172652E205054
:1031000072696E742063616E63656C6C65642E0019
:10311000472D636F646520736C6963656420666F17
:10312000722061206E65776572206669726D7761C5
:1031300072652E20436F6E74696E75653F00472D72
:10314000636F646520736C6963656420666F7220C9
:103150006120646966666572656E74207072696E5E
:1031600074657220747970652E20436F6E74696E79
:1031700075653F00472D636F646520736C696365F7
:103180006420666F72206120646966666572656E90
:1031900074207072696E74657220747970652E2067
:1031A000506C656173652072652D736C6963652071
:1031B000746865206D6F64656C20616761696E2E4F
:1031C000205072696E742063616E63656C6C656417
:1031D0002E00507265737320746865206B6E6F6289
:1031E00020746F2070726568656174206E6F7A7AE2
:1031F0006C6520616E6420636F6E74696E75652EF8
:1032000000506C656173652070726573732074681B
:1032100065206B6E6F6220746F20756E6C6F6164D9
:103220002066696C616D656E740052656D6F7665C0
:10323000206F6C642066696C616D656E7420616ED0
:103240006420707265737320746865206B6E6F62A2
:1032500020746F207374617274206C6F6164696E86
:1032600067206E65772066696C616D656E742E00EF
:10327000616E6420707265737320746865206B6E74
:103280006F6200496E736572742066696C616D656A
:103290006E7400436F6C6F72206E6F7420636F7278
:1032A000726563740046696C616D656E74206E6F43
:1032B00074206C6F61646564004368616E67656467
:1032C00020636F72726563746C793F004C6F616448
:1032D000696E6720636F6C6F72004368616E67652B
:1032E00020737563636573732100506C656173654A
:1032F000206F70656E2069646C657220616E642059
:1033000072656D6F76652066696C616D656E74209F
:103310006D616E75616C6C792E0057617320666902
:103320006C616D656E7420756E6C6F616420737571
:10333000636365737366756C3F00506C656173659C
:1033400020757067726164652E004E65772066692E
:10335000726D776172652076657273696F6E206138
:103360007661696C61626C653A0057616974696E77
:103370006720666F722050494E44412070726F6220
:103380006520636F6F6C696E6700437261736820BC
:1033900064657465637465642E20526573756D652C
:1033A000207072696E743F004372617368206465B7
:1033B0007465637465642E0043686F6F7365206580
:1033C000787472756465723A0043686F6F73652034
:1033D00066696C616D656E743A004E6F206D6F7634
:1033E000652E00537461626C6520616D6269656E63
:1033F000742074656D706572617475726520323108
:103400002D323643206973206E65656465642061E2
:10341000207269676964207374616E642069732027
:1034200072657175697265642E00506C65617365B3
:103430002072756E2058595A2063616C69627261FE
:1034400074696F6E2066697273742E0057616974B7
:1034500020666F7220757365722E2E2E004D3630E9
:1034600030006673656E736F725F7570646174654A
:10347000202D204D363030006673656E736F725F9D
:10348000726573746F72655F7072696E745F616E7E
:10349000645F636F6E74696E7565006673656E73E5
:1034A0006F725F6F715F6D656173737572655F7366
:1034B000746F702C20256868752073616D706C6561
:1034C000730A006673656E736F725F6F715F6D650F
:1034D0006173737572655F7374617274006673658E
:1034E0006E736F725F73746F705F616E645F736130
:1034F00076655F7072696E74006673656E736F7265
:103500005F6572725F636E74203D20300020573A11
:103510000020453A00543A005A206C6976652061D3
:10352000646A757374206F7574206F662072616EA3
:1035300067652E2053657474696E6720746F203040
:103540002E20436C69636B20746F20636F6E746907
:103550006E75652E005A206C6976652061646A7507
:103560007374206F7574206F662072616E67652EAC
:103570002053657474696E6720746F203000204298
:103580003A0020453A00543A00494E5434007265DE
:10359000636F7665725F6D616368696E655F737492
:1035A0006174655F61667465725F706F7765725F85
:1035B00070616E69632C20696E697469616C2000AA
:1035C00050525553412075766C6F0047342053306C
:1035D000004D32362053256C75004D313036205366
:1035E000004D323230205325640047312046256497
:1035F000004D3832004739322045004731204525FB
:10360000302E3366204632373030004D3230342091
:103610005025662052256620542566004731205AE1
:103620002566005052555341204D424C20563100E2
:1036300047312058256620592566204633303030E2
:1036400000506F736974696F6E20726561642066E3
:10365000726F6D20656570726F6D3A004D32332068
:103660002573002E67636F002C20666565646D7599
:103670006C7469706C793A00466565647261746552
:103680003A0047312045252D302E3366204632370B
:1036900030300047312045352046313230004D383A
:1036A00033004D31303920532564004D31393020FD
:1036B000532564004D31303420532564004732389F
:1036C00020582059004731205A252E33662046388D
:1036D0003030004731205A252D302E3366204625C4
:1036E0002D302E33660047312045252D302E336690
:1036F000204632373030004D383300000021104270
:103700002063308440A550C660E770088129914A43
:10371000A16BB18CC1ADD1CEE1EFF13112100273CA
:10372000325222B5529442F772D662399318837B93
:10373000B35AA3BDD39CC3FFF3DEE362244334201A
:10374000040114E664C774A44485546AA54BB528E3
:10375000850995EEE5CFF5ACC58DD55336722611AA
:10376000163006D776F6669556B4465BB77AA71933
:10377000973887DFF7FEE79DD7BCC7C448E5588672
:1037800068A7784008611802282338CCC9EDD98E83
:10379000E9AFF9488969990AA92BB9F55AD44AB70A
:1037A0007A966A711A500A333A122AFDDBDCCBBFD3
:1037B000FB9EEB799B588B3BBB1AABA66C877CE4DA
:1037C0004CC55C222C033C600C411CAEED8FFDEC23
:1037D000CDCDDD2AAD0BBD688D499D977EB66ED5EA
:1037E0005EF44E133E322E511E700E9FFFBEEFDD73
:1037F000DFFCCF1BBF3AAF599F788F8891A981CA50
:10380000B1EBA10CD12DC14EF16FE18010A100C22E
:1038100030E3200450254046706760B9839893FBDD
:10382000A3DAB33DC31CD37FE35EF3B1029012F37E
:1038300022D2323542145277625672EAB5CBA5A82D
:103840009589856EF54FE52CD50DC5E234C324A0CE
:103850001481046674476424540544DBA7FAB799BD
:1038600087B8975FE77EF71DC73CD7D326F236911E
:1038700006B01657667676154634564CD96DC90E85
:10388000F92FE9C899E9898AB9ABA944586548066E
:10389000782768C018E1088238A3287DCB5CDB3F1D
:1038A000EB1EFBF98BD89BBBAB9ABB754A545A37BE
:1038B0006A167AF10AD01AB32A923A2EFD0FED6CED
:1038C000DD4DCDAABD8BADE89DC98D267C076C640E
:1038D0005C454CA23C832CE01CC10C1FEF3EFF5DFD
:1038E000CF7CDF9BAFBABFD98FF89F176E367E555E
:1038F0004E745E932EB23ED10EF01E7C3C3E3F2FA6
:103900002A225C0022206661696C65643A20427557
:10391000666665722066756C6C2100220025692040
:10392000686F757273202569206D696E7574657393
:103930000054494D454F55543A004D313130004601
:10394000756C6C205258204275666665720043752E
:1039500073746F6D00536174696E200054657874E0
:10396000757200536D6F6F74680047312059252DB3
:103970002E32662045252D2E3366004731205825EE
:10398000642059252D2E32662045252D2E336600C4
:1039900044495341424C454400454E41424C454404
:1039A000004653656E736F722025530050415439A1
:1039B0003132355F696E69743A256868750A00505E
:1039C000415439313235206E6F7420726573706FD7
:1039D0006E64696E672028256429210A00312E3023
:1039E00000312E3500554E4B4E4F574E004C413155
:1039F00030433A204C696E65617220416476616E95
:103A00006365206D6F64653A20004C413130433A64
:103A10002041646A757374656420452D4A65726B34
:103A20003A2000000E1315110E00000004120912B6
:103A3000040000001C1F11111F00000006191803CC
:103A4000130C00040E1F041C000000040A0A0A0ADA
:103A500011110E001F1511151F0000000103161C87
:103A60000800000000110A04110A040C12120C00D4
:103A70000000002563252D31382E31385325630091
:103A80005B25735D2563005B25535D25630025631E
:103A9000252D31382E31385300252E31305320005A
:103AA0002563252D31382E31387325630025632594
:103AB0002D2E31365320002563252E3135533A25DE
:103AC0007325336400252D32302E3230530A0045E1
:103AD0007872656D65207370616E206F6620746802
:103AE00065205A2076616C756573210025642F3935
:103AF000006F6B0A0073746172740A004D4D553289
:103B0000206669726D776172652076657273696F80
:103B10006E20696E76616C69642E205265717569DC
:103B20007265642076657273696F6E3A206275699A
:103B30006C64206E756D626572202564206F722042
:103B40006869676865722E006673656E736F725F71
:103B5000636865636B706F696E745F7072696E74B1
:103B6000004D4D55203D3E20276F6B270A004D4DDF
:103B700055203D3E20276F6B270A002564004D4DE0
:103B800055203D3E20276F6B272C20726573756D85
:103B900065207072696E740A004D4D55207265740F
:103BA000727920617474656D7074206E722E202598
:103BB000640A004D4D55203D3E20276F6B270A00BB
:103BC000410A004D4D55203C3D202741270A004D1C
:103BD000363030204155544F004D36303000256886
:103BE000687500410A004D4D55203C3D2027412776
:103BF0000A0050300A004D25640A004D4D55203C06
:103C00003D20274D2564270A0057300A004D4D55A9
:103C1000203C3D20275730270A0053330A004D4DE2
:103C200055203C3D20275333270A0052300A004DCF
:103C30004D55203C3D20275230270A004B25640A71
:103C4000004D4D55203C3D20274B2564270A00455B
:103C500025640A004D4D55203C3D2027452564270D
:103C60000A0055300A004D4D55203C3D2027553067
:103C7000270A0043300A004D4D55203C3D20274384
:103C800030270A004C25640A004D4D55203C3D204C
:103C9000274C2564270A005425640A004D4D552001
:103CA0003C3D2027542564270A004D4D55202D20EA
:103CB000454E41424C454400256868750050300A25
:103CC000004D310A004D4D55203C3D20274D3127F8
:103CD0000050300A004D4D552076657273696F6E45
:103CE0002076616C6964004D4D55203D3E202725AE
:103CF000646F6B270A0025750053320A004D4D553D
:103D0000203C3D2027533227004D4D55203D3E207D
:103D10002725646F6B270A002575004D4D55206ED1
:103D20006F7420726573706F6E64696E67202D20EA
:103D300044495341424C45440053310A004D4D55CE
:103D4000203C3D2027533127004D4D55203D3E203E
:103D500027737461727427006E6F206D6F76650033
:103D6000542D636F646500756E6C6F6164006C6FD9
:103D70006164006D6D755F6765745F726573706F08
:103D80006E7365202D20626567696E206D6F7665A4
:103D90003A20006D6D755F6765745F726573706F53
:103DA0006E736528292072657475726E696E673A44
:103DB0002025640A00556E6C6F6164696E67206629
:103DC000696E6973686564203200556E6C6F61645A
:103DD000203200556E6C6F6164696E672066696E93
:103DE0006973686564203100556E6C6F61642031C1
:103DF000004D4D5520737461727473207265737039
:103E00006F6E64696E67004D4D55206E6F74207241
:103E10006573706F6E64696E670046696C616D658D
:103E20006E74206F7574206F662072616E676520F6
:103E30002564200A000000803F5555854100008020
:103E40003F0000C84100000040555505420000C039
:103E50003F00004842000020405555854200007058
:103E6000C1ABAAA642000060C10000A0410000C092
:103E7000C00000204100002041ABAA3A41000020D0
:103E8000C15555D540000048C2555505424D373003
:103E900031204534004D373031204533004D373027
:103EA00031204532004D373031204531004D37301B
:103EB000312045300046696C616D656E74206E720C
:103EC000206F7574206F662072616E676521002017
:103ED0006661696C65642E00207375636365656453
:103EE00065642E004D4D552063616E5F6C6F61649B
:103EF0003A004164646974696F6E616C206C6F6133
:103F00006420617474656D7074206E722E20256457
:103F10000A002079645F6D696E3D25752079645FC4
:103F20006D61783D25752079645F6176673D257503
:103F30002073685F6176673D25750A002073745FA2
:103F400073756D3D25752079645F73756D3D2575BD
:103F50002065725F73756D3D25752065725F6D61BB
:103F6000783D256868750A00496E616374697669F1
:103F700074792053687574646F776E004B494C4CAC
:103F800045442E20005072696E7465722068616C21
:103F90007465642E206B696C6C28292063616C6CDD
:103FA000656421004B494C4C3A2025640A004D328F
:103FB000323120496E76616C69642065787472755F
:103FC00064657220004D32313820496E76616C692B
:103FD0006420657874727564657220004D313039E3
:103FE00020496E76616C69642065787472756465C9
:103FF0007220004D31303520496E76616C69642045
:10400000657874727564657220004D3130342049D2
:104010006E76616C6964206578747275646572206F
:1040200000504F5745522050414E4943204445547B
:1040300045435445440055564C4F202D20656E6431
:104040002025640A0055564C4F5F54494E59202D87
:1040500020656E642025640A00776F726C642063AB
:104060006F6F7264696E617465733A2028252E3310
:10407000662C20252E33662C20252E3366290A0037
:1040800043757272656E7420706F73205A5F415869
:1040900049533A252E33660A43757272656E742051
:1040A000706F7320455F415849533A252E33660A95
:1040B0000041667465722077616974696E67206675
:1040C0006F722074656D703A0A43757272656E7412
:1040D00020706F7320585F415849533A252E33663C
:1040E0000A43757272656E7420706F7320595F4158
:1040F0005849533A252E33660A00656E7175656915
:104100006E67202200446F6E65207072696E74695C
:104110006E672066696C65004D3131322063616CD9
:104120006C65642E20456D657267656E63792053FA
:10413000746F702E005072696E7465722073746FA4
:10414000707065642064756520746F206572726F8D
:1041500072732E2046697820746865206572726FCC
:104160007220616E6420757365204D393939207471
:104170006F20726573746172742E202854656D709F
:1041800065726174757265206973207265736574F8
:104190002E205365742069742061667465722072E4
:1041A000657374617274696E6729004E6F204C6983
:1041B0006E65204E756D6265722077697468206344
:1041C0006865636B73756D2C204C617374204C694A
:1041D0006E653A20004E6F20436865636B73756DA2
:1041E0002077697468206C696E65206E756D6265F4
:1041F000722C204C617374204C696E653A20006308
:104200006865636B73756D206D69736D6174636848
:104210002C204C617374204C696E653A20004C6907
:104220006E65204E756D626572206973206E6F74C5
:10423000204C617374204C696E65204E756D62650B
:10424000722B312C204C617374204C696E653A20BE
:10425000006673656E736F725F6175746F6C6F610A
:10426000645F636865636B5F7374617274202D2093
:104270006175746F6C6F616420454E41424C4544DA
:10428000006673656E736F725F6175746F6C6F61DA
:10429000645F636865636B5F73746F70202D20616A
:1042A00075746F6C6F61642044495341424C4544BE
:1042B00000312F390025632533642F2564256300E1
:1042C00048656174696E672064697361626C6564D6
:1042D000206279207361666574792074696D6572F6
:1042E0002E005265636F766572696E672070726921
:1042F0006E7400506C65617365207761697400535A
:10430000544F505045442E00426564206C657665DC
:104310006C696E67206661696C65642E2053656EFA
:10432000736F72206469646E2774207472696767A2
:1043300065722E20446562726973206F6E206E6F05
:104340007A7A6C653F2057616974696E6720666F81
:10435000722072657365742E00506C656173652000
:10436000757064617465206669726D77617265202D
:10437000696E20796F7572204D4D55322E20576130
:104380006974696E6720666F722072657365742E3A
:10439000004D4D55204F4B2E20526573756D696E43
:1043A000672E2E2E004D4D55204F4B2E20526573FB
:1043B000756D696E6720706F736974696F6E2E2EEC
:1043C0002E004D4D55204F4B2E20526573756D6953
:1043D0006E672074656D70657261747572652E2EDE
:1043E0002E004669782074686520697373756520AE
:1043F000616E64207468656E2070726573732062EC
:104400007574746F6E206F6E204D4D5520756E69FA
:10441000742E00507265737320746865206B6E6F24
:104420006220746F20726573756D65206E6F7A7A85
:104430006C652074656D70657261747572652E00AF
:104440004D4D55206E6565647320757365722061EE
:104450007474656E74696F6E2E0043757474696E42
:10446000672066696C616D656E7400506C65617380
:10447000652072656D6F76652066696C616D656E2D
:104480007420616E64207468656E20707265737349
:1044900020746865206B6E6F622E00456A656374D8
:1044A000696E672066696C616D656E74004D4D556F
:1044B000206C6F6164206661696C6564004731201F
:1044C00058352E302045342E302046313030302EB5
:1044D00030004731205A302E3230204631303030D3
:1044E0002E30004731205835352E302045323520CA
:1044F00046313430302E3000473120592D322E30A5
:104500002046313030302E300047312058323430A0
:104510002E30204532352E30202046323230302E9B
:1045200030004739322045302E30004731205A3094
:104530002E332046313030302E3000473120583570
:10454000352E302045382E302046323030302E3057
:104550000047312058352E30204533322E3020464A
:10456000313830302E30004731205835352E30204C
:104570004533322E302046313037332E300047312C
:10458000204634303030004D32303420533130301A
:1045900030004731205A352046373230302E303007
:1045A0003000473120452D312E3530303030204617
:1045B000323130302E3030303030004D383300471B
:1045C000393000473231004739322045302E300033
:1045D000473120583530205935352045332E363275
:1045E00037373300473120583230302059353520A5
:1045F00045302E3439333836004731205832303088
:10460000205937352045332E36323737330047317E
:1046100020583530205937352045302E343933383D
:104620003600473120583530205939352045332E52
:10463000363237373300473120583230302059393D
:10464000352045302E343933383600473120583242
:10465000303020593131352045332E36323737331B
:104660000047312058353020593131352045302E22
:1046700034393338360047312058353020593133FA
:10468000352045332E363237373300473120583204
:10469000303020593133352045302E3636313734DD
:1046A00000473120583230302059313535204532DD
:1046B0002E363237373300473120583130302059C9
:1046C00031353520453200473120583735205931B2
:1046D00035352045322E35004731204631303830CF
:1046E000004731205A302E313530204637323030B5
:1046F0002E30303000473120583530205931353593
:10470000004739322045302E3000473238004D31D5
:104710003039004D313930004D3130370077323586
:10472000783230636C5F63666D0A007732357832B9
:1047300030636C5F656E7465720A007374617274C5
:104740000A0024F4D43050C38E20C2A24017828BBA
:104750007011127A910D816CD90AA861E108C758CD
:104760006607615143061E4B5D05C145A7041A410A
:104770001104093D9803713931034036DB0265337A
:104780009102D4305402802E1D02632CEE01752A52
:10479000C501B028A001102781018F2564012B24B9
:1047A0004B01E0223401AC211F018D200D01801F3F
:1047B000FC00841EED00971DDF00B81CD200E61B34
:1047C000C600201BBC00641AB200B219A8000A1966
:1047D000A0006A189900D117910040178B00B516F8
:1047E000840031167E00B31579003A157300C714A2
:1047F0006F0058146A00EE136600881363002513D7
:104800005E00C7125B006C12570015125400C111F4
:10481000510070114F0021114B00D61049008D102E
:1048200047004610440002104200C00F4000800FB5
:104830003E00420F3C00060F3B00CB0E3800930EAB
:1048400037005C0E3500270E3400F30D3200C10D29
:104850003100900D3000600D2E00320D2D00050D41
:104860002C00D90C2B00AE0C2900850C29005C0C07
:104870002700350C27000E0C2600E80B2400C40B83
:104880002400A00B23007D0B23005A0B2100390BC1
:104890002100180B2000F80A1F00D90A1E00BB0ACD
:1048A0001E009D0A1D00800A1D00630A1C00470AA5
:1048B0001B002C0A1B00110A1A00F7091A00DD0957
:1048C0001900C4091900AB091900920917007B09E6
:1048D0001800630917004C09160036091600200954
:1048E00016000A091500F5081500E0081400CC08A8
:1048F0001400B8081400A4081400900813007D08E0
:1049000012006B0813005808120046081200340801
:104910001100230811001208110001081100F0070E
:104920001000E0071000D0071000C0071000B0070B
:104930000F00A107100091070E0083070F007407F6
:104940000F0065070E0057070E0049070E003B07D2
:104950000D002E070E0020070D0013070D0006079F
:104960000D00F9060C00ED060D00E0060C00D40663
:104970000C00C8060C00BC060C00B0060C00A40617
:104980000B0099060C008D060B0082060B007706C3
:104990000B006C060B0061060A0057060B004C0664
:1049A0000A0042060A0038060A002E060A002406FB
:1049B0000A001A060A001006090007060A00FD058B
:1049C0000900F4050900EB050900E2050900D90515
:1049D0000900D0050900C7050900BE050900B50595
:1049E0000800AD050800A50509009C050800940510
:1049F00008008C050800840508007C050800740583
:104A000008006C050700650508005D0507005605F0
:104A100008004E0507004705070040050800380557
:104A20000700310507002A050700230507001C05BC
:104A30000600160507000F05070008050600020519
:104A40000700FB040600F5040700EE040600E80476
:104A50000600E2040700DB040600D5040600CF04CC
:104A60000600C9040600C3040600BD040600B7041E
:104A70000600B1040500AC040600A6040600A0046C
:104A800005009B04060095040500900406008A04B6
:104A9000050085040500800406007A0405007504FD
:104AA0000500700405006B04050066040500610440
:104AB00005005C04050057040500520405004D0480
:104AC000050048040500430405003E0404003A04C0
:104AD000050035040500300404002C0405002704FB
:104AE0000400230405001E0404001A040400160434
:104AF0000500110404000D04040009040500040469
:104B0000040000040400FC030400F8030400F403A0
:104B10000400F0030400EC030400E8030400E403D1
:104B20000400E0030400DC030400D8030400D40301
:104B30000400D0030400CC030400C8030300C50331
:104B4000030024F404D9201BC40C5C0E9804C4098F
:104B50005F0265077101F405F900FB04B300480426
:104B60008700C10369005803550003034500BE02D6
:104B70003A008402310053022A002902250004026F
:104B80002000E4011C00C8011900AF0117009801C2
:104B90001400840113007101100061011000510123
:104BA0000E0043010D0036010B002B010B0020010C
:104BB0000B00150109000C01090003010800FB00AE
:104BC0000800F3000800EB000700E4000600DE0028
:104BD0000600D8000600D2000600CC000500C70081
:104BE0000500C2000500BD000400B9000400B500C6
:104BF0000400B1000400AD000400A9000400A500F9
:104C00000300A20003009F0004009B000300980023
:104C100003009500020093000300900003008D0044
:104C200002008B000300880002008600020084005E
:104C30000300810002007F0002007D0002007B0073
:104C40000200790002007700010076000200740083
:104C5000020072000100710002006F0002006D008E
:104C600001006C0002006A00010069000200670098
:104C7000010066000100650001006400020062009E
:104C8000010061000100600001005F0002005D00A2
:104C900001005C0001005B0001005A0001005900A6
:104CA00001005800010057000100560001005500A6
:104CB00001005400010053000000530001005200A5
:104CC000010051000100500001004F0001004E00A2
:104CD00000004E0001004D0001004C0001004B009F
:104CE00000004B0001004A0001004900010048009B
:104CF0000000480001004700010046000000460097
:104D0000010045000000450001004400010043008F
:104D10000000430001004200000042000100410089
:104D2000000041000100400001003F0000003F0082
:104D300001003E0000003E0001003D0000003D007B
:104D400001003C0000003C0000003C0001003B0072
:104D500000003B0001003A0000003A000100390069
:104D60000000390001003800000038000000380061
:104D70000100370000003700010036000000360057
:104D8000000036000100350000003500000035004D
:104D90000100340000003400000034000100330042
:104DA0000000330000003300010032000000320038
:104DB000000032000100310000003100000031002D
:104DC00001003000000030000000300001002F0022
:104DD00000002F0000002F0000002F0001002E0017
:104DE00000002E0000002E0001002D0000002D000C
:104DF00000002D0000002D0001002C0000002C0000
:104E000000002C0000002C0001002B0000002B00F3
:104E100000002B0000002B0001002A0000002A00E7
:104E200000002A0000002A000100290000002900DB
:104E300000002900000029000000290001002800CE
:104E400000002800000028000000280000002800C2
:104E500001002700000027000000270000002700B5
:104E600000002700010026000000260000002600A8
:104E7000000026000000260001002500000025009B
:104E8000000025000000250000002500000025008E
:104E90000100240000002400000024000000240081
:104EA0000000240001002300000023000000230074
:104EB0000000230000002300000023000000230066
:104EC0000100220000002200000022000000220059
:104ED000000022000000220001002100000021004B
:104EE000000021000000210000002100000021003E
:104EF0000000210001002000000020000000200030
:104F00000000200000002000000020000000200021
:104F10000000200001001F0000001F0000001F0013
:104F200000001F0000001F0000001F0000001F0005
:104F300001001E0000001E0000001E0000001E00F8
:104F40000000504944204175746F74756E65206689
:104F5000696E697368656421205075742074686592
:104F6000206C617374204B702C204B6920616E643F
:104F7000204B6420636F6E7374616E74732066726D
:104F80006F6D2061626F766520696E746F20436F6C
:104F90006E66696775726174696F6E2E680050493C
:104FA00044204175746F74756E65206661696C6527
:104FB00064212074696D656F75740020403A005457
:104FC0003A00423A00504944204175746F74756E3E
:104FD00065206661696C6564212054656D70657239
:104FE000617475726520746F6F206869676800204E
:104FF0004B643A2000204B693A2000204B703A2045
:105000000020436C61737369632050494420002081
:1050100054753A2000204B753A2000206D61783A93
:105020002000206D696E3A200020643A2000206242
:105030006961733A20004578747275646572206600
:10504000616E207370656564206973206C6F77658D
:1050500072207468616E20657870656374656400A1
:105060005072696E742066616E207370656564208D
:105070006973206C6F776572207468616E20657843
:10508000706563746564004D494E54454D50204130
:105090004D42004D415854454D50004D41585445E6
:1050A0004D5020424544004D415854454D502041FB
:1050B0004D420070012C0190012701B0012201C076
:1050C000011D01F00118011002130130020E0160F0
:1050D00002090190020401C002FF000003FA00402F
:1050E00003F5008003F000D003EB002004E600701D
:1050F00004E100E004DC004005D700C005D2004018
:1051000006CD00D006C8008007C3003008BE00F0FE
:1051100008B900C009B400B00AAF00B00BAA00D0B3
:105120000CA500000EA000500F9B00C01096005070
:1051300012910000148C00C0158700B0178200B0D7
:10514000197D00D01B7800001E730040206E009077
:10515000226900F024640040275F0090295A00E093
:105160002B5500102E500020304B0010324600E02E
:1051700033410090353C001037370070383200A0C2
:10518000392D00B03A2800A03B2300603C1E0010DF
:105190003D1900903D1400103E0F00703E0A00C003
:1051A0003E0500003F000090137D00B0157800F030
:1051B000177300601A6E00F01C6900A01F64005095
:1051C000225F0020255A00E0275500902A50002039
:1051D0002D4B00A02F4600F031410010343C00F070
:1051E000353700A037320020392D00603A28007092
:1051F0003B2300603C1E00203D1900C03D140040D0
:105200003E0F00A03E0A00F03E0500403F00007047
:105210003FFBFF903FF6FFB03FF1FFC03FECFFD0F8
:105220003FE7FFE03FE2FFF03FDDFFF03FD8FF2028
:10523000484F54454E4420544845524D414C20520D
:10524000554E41574159002048454154424544205C
:10525000544845524D414C2052554E4157415900FA
:10526000544845524D414C2052554E4157415900EA
:1052700042454420544845524D414C2052554E41E0
:105280005741590020544845524D414C2052554EEB
:105290004157415920282050524548454154204803
:1052A0004F54454E44290020544845524D414C200E
:1052B00052554E41574159202820505245484541AA
:1052C00054204845415442454429005052454845E0
:1052D0004154204552524F520042454420505245BD
:1052E00048454154204552524F52004572723A206F
:1052F00000207472696767657265642100486561A2
:1053000074657273207377697463686564206F666F
:10531000662E20003A2000506C656173652072652E
:105320007374617274004D494E54454D50004D499F
:105330004E54454D502042454400452D6D6F746FCD
:10534000722063757272656E74207363616C696E2E
:105350006720656E61626C656400746D6332313321
:10536000305F686F6D655F656E7465722861786522
:10537000735F6D61736B3D307825303278290A0098
:10538000746D63323133305F686F6D655F65786966
:105390007420746D63323133305F73675F686F6D93
:1053A000696E675F617865735F6D61736B3D3078BF
:1053B000253032780A00726573756C742076616CE2
:1053C00075653A2025640A0020693D253264206312
:1053D0006E743D2532642076616C3D2532640A008E
:1053E000636C7573746572733A0020693D2532648D
:1053F00020737465703D2532640A00736F727465A2
:10540000642073616D706C65733A00252D377300ED
:105410003A200025642F3600252D32305300203AE3
:105420002000252D32307300542564004731205A66
:10543000302E342046313030302E30004731205964
:105440002D332E302046313030302E30004D383361
:1054500000473120583130302E30204531322E3542
:105460002046313030302E30004731205836302E33
:10547000302045392E302046313030302E30006714
:105480004551453B452B4522450945F844E344D267
:1054900044BD44C745C345BF45BB45A2459245876A
:1054A000457E454731205835302059333520452534
:1054B0002D2E336600F546E146D846C746B746A1CD
:1054C000468B46764661464B46364622460E46F9A0
:1054D00045E445D045496E76616C69642050494485
:1054E0002063616C2E20726573756C74732E204E70
:1054F0006F742073746F72656420746F204545501B
:10550000524F4D2E004D353030004731205A313545
:105510002046313530300047393100473120583589
:105520003020593139302045302046373030300076
:10553000473930004D3834004D3730322043004772
:105540003120583130205931383020463430303015
:10555000004731205A31302046313330302E303040
:1055600030004D313430205330004D313034205331
:105570003000473120452D302E3037353030204631
:10558000323130302E3030303030004D3130370055
:1055900025530A20252D31362E313653252D3364DF
:1055A0000A20252D31362E313653252D3364002522
:1055B000530A20252D31362E313653252D33640ADA
:1055C00020252D31362E313653252D33640A2025E2
:1055D0002D31362E313653252D33640025530A20C4
:1055E000252D31362E313653252D33640A20252DB5
:1055F00031362E313653252D33640A20252D372E92
:1056000037535820252D336420205920252D33640D
:105610000025530A20252D31362E313653252D33C2
:10562000640A20252D372E3753204820252D33643A
:10563000205320252D33640A20252D372E37532063
:105640005820252D3364205920252D336400202532
:105650007325336401200A00205057523A2020203D
:1056600020202025342E3166560A204245443A2017
:10567000202020202025342E3166560025530A2074
:10568000582025640A20592025640025752E25758B
:105690002E25752E25750025730020005072696E29
:1056A00074657220495020416464723A0025730089
:1056B0002000466C61736841697220495020416442
:1056C00064723A004D4D5532202020202020204E7B
:1056D0002F410025642E25642E25642D256400208D
:1056E00046573A0053657020203520323032310061
:1056F000453344763666756C6C0045494E53795F88
:1057000031306100315F37356D6D5F4D4B33002DAA
:105710002D2D2D2D2D2D2D2D2D2D2D002072657033
:105720006F20556E6B6E6F776E0020332E31302EEA
:10573000302D34343831004669726D776172653AC4
:10574000004D373032004D373031004D37303200A8
:105750004D37303100464C4558202D202032343012
:105760002F35300050502020202D20203235342F6E
:105770003130300048495053202D20203232302F14
:105780003130300041425320202D20203235352F3A
:105790003130300050564220202D20203231352F1C
:1057A00037350050432020202D20203237352F312F
:1057B00031300041534120202D20203236302F310E
:1057C00030350050455420202D20203233302F38E2
:1057D0003500504C4120202D20203231352F3630DD
:1057E000006E6F7A7A6C65202D20203235302F3094
:1057F000006661726D2020202D20203235302F3838
:105800003000252D31322E313253252B382E316682
:105810000045787472756465723A006D6D005900C8
:1058200058004D313137204669727374206C6179AC
:1058300065722063616C2E00526573756D696E67C9
:10584000207072696E740050494E44412048656171
:1058500074696E670043616C6962726174696F6E2E
:1058600020646F6E650043616C6962726174696E79
:1058700067205A0042656420646F6E65004265646B
:105880002048656174696E670048656174696E6778
:1058900020646F6E652E0048656174696E67005004
:1058A00049442063616C2E2066696E697368656483
:1058B000005049442063616C2E005072696E742060
:1058C000706175736564005072696E742046414E54
:1058D000004E6F7A7A6C652046414E004D4D552042
:1058E000706F776572206661696C73004D4D55204D
:1058F0006C6F6164206661696C73004D4D55206664
:1059000061696C730046696C2E2072756E6F7574D8
:105910007300546F74616C206661696C7572657395
:105920000043726173680052756E6F757473005036
:105930006F776572206661696C75726573004C6182
:105940007374207072696E74206661696C7572651B
:105950007300546F74616C004C61737420707269D1
:105960006E7400416D6269656E740044756D7020DF
:105970006D656D6F727900566F6C74616765730049
:1059800054656D7065726174757265730042656C03
:1059900074207374617475730053656E736F722035
:1059A000696E666F00457874727564657220696E01
:1059B000666F0058595A2063616C2E2064657461CB
:1059C000696C7300756E6B6E6F776E004D4D55325E
:1059D00020636F6E6E656374656400446174653A3C
:1059E00000746F20756E6C6F61642066696C616D08
:1059F000656E7400746F206C6F61642066696C6101
:105A00006D656E7400507265737320746865206BE9
:105A10006E6F620050726568656174696E672074AC
:105A20006F206375740050726568656174696E6794
:105A300020746F20656A65637400507265686561E3
:105A400074696E6720746F20756E6C6F61640050AE
:105A5000726568656174696E6720746F206C6F6130
:105A60006400436F6F6C646F776E00507265686599
:105A7000617420746865206E6F7A7A6C65210045C8
:105A800052524F523A0046696C616D656E742065E2
:105A90007874727564696E6720262077697468204F
:105AA000636F727265637420636F6C6F723F004145
:105AB00075746F6C6F6164696E672066696C616D87
:105AC000656E74206973206163746976652C206A41
:105AD00075737420707265737320746865206B6EC3
